:100000000C942A000C9445000C9445000C94450077
:100010000C9445000C9445000C9445000C9445004C
:100020000C9445000C9445000C9445000C9445003C
:100030000C9445000C9445000C9445000C9445002C
:100040000C9445000C9445000C9445000C9445001C
:100050000C94450011241FBECFE5D8E0DEBFCDBF14
:1000600011E0A0E6B0E0E8E7FFE102C005900D92E4
:10007000A63DB107D9F711E0A6EDB1E001C01D9290
:10008000A73EB107E1F70C94BC020C940000CF939B
:10009000DF93CDB7DEB781E08093310088E18093B4
:1000A0002A008FE280932900DF91CF910895CF93AA
:1000B000DF93CDB7DEB721970FB6F894DEBF0FBE42
:1000C000CDBF898389818A3019F48DE00E94570061
:1000D00080912B00992780729070009709F4F8CFD7
:1000E000898180932C0021960FB6F894DEBF0FBE55
:1000F000CDBFDF91CF910895CF93DF93CDB7DEB71A
:1001000080912B0088230CF0FBCF80912C00992745
:10011000DF91CF9108950F931F93CF93DF93CDB7C6
:10012000DEB7CA50D2400FB6F894DEBF0FBECDBFC7
:100130001B821C821D821E821F8280E690E09F939C
:100140008F930E94410B0F900F9018868885803FF7
:1001500008F065C0CE010B969E012D5F3F4FAE01AA
:100160004C5F5F4F8C01688580E090E00E947707CC
:100170009A83898389819A812FEF8F3F920709F4AF
:100180004EC08C819D81AE81BF81803020E092077E
:1001900021E0A20720E0B20728F48C819D819A8794
:1001A00089870FC08C819D81AE81BF81072E7AE047
:1001B000B695A795979587957A95D1F7702D9A87DB
:1001C000898789859A859F938F938B8199279F93A0
:1001D0008F9389819A819F938F9384E790E09F9377
:1001E0008F930E94410B8DB79EB708960FB6F89477
:1001F0009EBF0FBE8DBFCE010B969F938F930E9423
:10020000410B0F900F9084EA90E09F938F930E9490
:10021000410B0F900F9088858F5F888797CF86EA74
:1002200090E09F938F930E94410B0F900F9080E07E
:1002300090E0C65FDD4F0FB6F894DEBF0FBECDBFB6
:10024000DF91CF911F910F9108950F931F93CF933B
:10025000DF93CDB7DEB7C151D2400FB6F894DEBF01
:100260000FBECDBF9A8389831D821E821F8218868E
:1002700019861C821B82CE010A969E012B5F3F4F7E
:10028000AE014A5F5F4FBE016D5F7F4F8C01898178
:100290009A810E948C0A813009F0B5C084EA90E00E
:1002A0009F938F930E94410B0F900F90FE01E25F8E
:1002B000FD4F8E819F81A885B985072E79E0B6957F
:1002C000A795979587957A95D1F7702D918380831F
:1002D000FE01E45FFD4F11821082FE01E45FFD4FDD
:1002E000DE01A25FBD4F208131818D919C911197DC
:1002F000821793070CF4A8C0FE01E45FFD4F8081D4
:100300009181AA2797FDA095BA2FBE01665F7F4F06
:100310009C01AD018B819C810E947709FE01E65F03
:10032000FD4F11821082FE01E65FFD4F80819181B9
:1003300022E0803092070CF059C0FE01E45FFD4FCF
:10034000DE01A25FBD4F208131818D919C9111977B
:100350002817390729F5FE01E65FFD4F808191815D
:100360009C01442737FD4095542F8E819F81A8859D
:10037000B9859170A070B070281739074A075B07DC
:1003800079F481EC90E09F938F930E94410B0F9042
:100390000F90C05FDD4F19821882C051D24062C0F9
:1003A000FE01E65FFD4F20813181CE010196820F73
:1003B000931FFC013996808199279F938F9388ED35
:1003C00090E09F938F930E94410B0F900F900F909E
:1003D0000F90DE01A65FBD4FFE01E65FFD4F8081FD
:1003E0009181019611969C938E939DCFDE01A45F1F
:1003F000BD4FFE01E45FFD4F808191810196119612
:100400009C938E936ACF84EA90E09F938F930E948F
:10041000410B0F900F9089819A819F938F930E9437
:10042000410B0F900F908BED90E09F938F930E9464
:10043000410B0F900F9081E090E0C05FDD4F9983FA
:100440008883C051D2400EC080EF90E09F938F937D
:100450000E94410B0F900F90C05FDD4F19821882F0
:10046000C051D240C05FDD4F88819981C051D240D8
:10047000CF5EDD4F0FB6F894DEBF0FBECDBFDF916C
:10048000CF911F910F910895CF93DF93CDB7DEB732
:1004900069970FB6F894DEBF0FBECDBF9A838983EC
:1004A000CE0103969D8B8C8BE981FA818081282F68
:1004B0003327398F288F888D998D8434910531F0B9
:1004C000E88DF98DE435F10531F041C00E948B00D3
:1004D0001F8A1E8A46C082E08B8B8B89803180F513
:1004E0008B89282F332789819A81F901E80FF91F19
:1004F00080818D3009F18B89282F332789819A815A
:10050000F901E80FF91F80818032B1F0BE016C5E05
:100510007F4FFB01208131818B89482F55278981AD
:100520009A81FA01E80FF91FD90180818C932F5F1E
:100530003F4FFB01318320838B898F5F8B8BCDCF26
:10054000CE0103960E9425011F8A1E8A0AC086E0FA
:1005500091E09F938F930E94410B0F900F901F8A01
:100560001E8A8E899F8969960FB6F894DEBF0FBEEA
:10057000CDBFDF91CF910895C5E4D6E0DEBFCDBFFA
:100580000E94470060E070E087E590E00E94FA0A70
:100590008FE191E09F938F930E94410B0F900F90FA
:1005A0008BE591E09F938F930E94410B0F900F90EA
:1005B0000E943F04882349F086E791E09F938F9340
:1005C0000E94410B0F900F90F3CF0E94190988E70A
:1005D00091E09F938F930E94410B0F900F90CE015B
:1005E00001960E949E0682E991E09F938F930E945C
:1005F000410B0F900F90FE01EF5FFD4F83E090E005
:1006000091838083FE01EF5FFD4F8081918188306F
:10061000910528F5FE01EF5FFD4F20813181CE016C
:100620000196FC01E20FF31F808199279F938F931E
:1006300088ED90E09F938F930E94410B0F900F9055
:100640000F900F90DE01AF5FBD4FFE01EF5FFD4FDA
:1006500080819181019611969C938E93D3CF84EAE9
:1006600090E09F938F930E94410B0F900F90CE01CB
:1006700001960E94C606FE01EA5EFD4F8F81992712
:100680008370907091838083DE01AA5EBD4FFE016E
:10069000EA5EFD4F80819181982F88278D939C93EE
:1006A000DE01AA5EBD4F8885282F3327FE01EA5E52
:1006B000FD4F80819181820F931F8D939C93DE016A
:1006C000AA5EBD4FFE01EA5EFD4F80819181880FD9
:1006D000991F880F991F8D939C93DE01AA5EBD4FD1
:1006E00089859927807C90709C01022E232F000C15
:1006F000221F330B000C221F331FFE01EA5EFD4F49
:1007000080819181820F931F8D939C93FE01EB5EFC
:10071000FD4F8A8583708083DE01AB5EBD4FFE0195
:10072000EB5EFD4F8081880F8C93DE01AB5EBD4F89
:100730008B859927807890709C01220F232F221F90
:10074000330BFE01EB5EFD4F8081820F8C93AE0177
:10075000485E5D4FDE01AA5EBD4FFE01EB5EFD4FC0
:100760008081282F332789E090E0821B930B9C0126
:100770008D919C9102C0959587952A95E2F7FA0193
:10078000918380838EE991E09F938F930E94410B28
:100790000F900F90FE01E85EFD4F808191819F9345
:1007A0008F938AEA91E09F938F930E94410B0F9061
:1007B0000F900F900F908DEA91E09F938F930E947E
:1007C000410B0F900F908E010C5E1D4F0E947C001C
:1007D000F8018083FE01EC5EFD4F80810E9457008E
:1007E000FE01ED5EFD4F8081813180F49E012D5F21
:1007F0003D4FFE01ED5EFD4F80819927DC01A20F88
:10080000B31FFE01EC5EFD4F80818C93FE01EC5E18
:10081000FD4F80818D3049F5CE018D5F9D4F0E9447
:100820004402FE01ED5EFD4F1082FE01E65EFD4FCB
:100830001082FE01E65EFD4F8081803120F69E0130
:100840002D5F3D4FFE01E65EFD4F80819927FC0143
:10085000E20FF31F1082DE01A65EBD4FFE01E65ED1
:10086000FD4F80818F5F8C93E4CFDE01AD5EBD4F85
:10087000FE01ED5EFD4F80818F5F8C93A4CFCF93FF
:10088000DF93CDB7DEB72A970FB6F894DEBF0FBE61
:10089000CDBF1982809137008F7B80933700809184
:1008A00037008068809337008091370080628093A2
:1008B0003700809137008061809337008091370046
:1008C0008061809337008091380080618093380088
:1008D0001A828A81883C28F400008A818F5F8A838B
:1008E000F8CF83E580932D0010922E001A828A8122
:1008F0008F3038F48FEF0E943C058A818F5F8A83A6
:10090000F6CF86E0DE011396E2EBF1E001900D9266
:100910008A95E1F7CE0103960E94D104813069F0F7
:10092000FE0131968081982F8F5F8083993C90F3F0
:1009300081E090E09A87898729C0198281E48B83BE
:100940008FEF8887CE0103960E94D104882369F037
:10095000FE0131968081982F8F5F8083953690F3CA
:1009600082E090E09A87898711C080912D008C7F6A
:1009700080932D0080912E00816080932E008091C5
:1009800038008061809338001A86198689859A8597
:100990002A960FB6F894DEBF0FBECDBFDF91CF9180
:1009A0000895CF93DF93CDB7DEB726970FB6F894AF
:1009B000DEBF0FBECDBF9A8389838FEF8B831D82ED
:1009C0001C82809138008061809338008FEF0E94F4
:1009D0003C05809138008F7E809338001E828E8186
:1009E000863060F4E981FA8180813196FA83E98367
:1009F0000E943C058E818F5F8E83F1CF8B818F3F6C
:100A000079F40E941B058B83FE01349680819181CD
:100A10009C0101969183808381E0253F380770F324
:100A20008B81992726960FB6F894DEBF0FBECDBFF7
:100A3000DF91CF910895CF93DF93CDB7DEB72197A4
:100A40000FB6F894DEBF0FBECDBF19828FEF809333
:100A50002F0080912E0088230CF0FBCF80912F0077
:100A600089838981992721960FB6F894DEBF0FBE3E
:100A7000CDBFDF91CF910895CF93DF93CDB7DEB790
:100A800021970FB6F894DEBF0FBECDBF8983898151
:100A900080932F0080912E0088230CF0FBCF2196AD
:100AA0000FB6F894DEBF0FBECDBFDF91CF91089592
:100AB000CF93DF93CDB7DEB762970FB6F894DEBF62
:100AC0000FBECDBF69837A838B839C835E834D8306
:100AD00086E0DE011896E8EBF1E001900D928A9530
:100AE000E1F789819A81AB81BC81072E79E0880F7B
:100AF000991FAA1FBB1F7A95D1F7702D89839A83FE
:100B0000AB83BC8389819A81AB81BC8180709070FA
:100B1000A0708B2F9927AA27BB27898789819A8163
:100B2000AB81BC8180709070B070CD01AA27BB27CB
:100B30008A8789819A81AB81BC818070A070B070F6
:100B4000892F9A2FAB2FBB278B87CE0108960E9447
:100B5000D1048F838F81882329F08F8199279A8BE5
:100B6000898B36C01E868E85843630F40E941B0524
:100B70008E858F5F8E87F7CF8EEF0E943C05188A97
:100B80001F868F85988922E0803092077CF4DE01F1
:100B90001596ED91FC91119780813196ED93FC9320
:100BA0000E943C058E858F5F8E87EBCF8FEF0E9472
:100BB0003C058FEF0E943C050E941B058F3F09F00A
:100BC000FBCF809138008061809338001A8A198A9F
:100BD00089899A8962960FB6F894DEBF0FBECDBFA1
:100BE000DF91CF910895CF93DF93CDB7DEB72897EC
:100BF0000FB6F894DEBF0FBECDBF9A8389837C8386
:100C00006B835E834D8389819A810E94D1048823FE
:100C100009F02BC00E941B058E3F09F0FBCF188600
:100C20001F822F8138858D819E8128173907A0F476
:100C30000E941B05282FDE0113968D919C91119720
:100C4000FC012083019611969C938E938F81988549
:100C5000019698878F83E5CF0E941B050E941B0594
:100C60008091380080618093380028960FB6F89400
:100C7000DEBF0FBECDBFDF91CF910895CF93DF933D
:100C8000CDB7DEB72C970FB6F894DEBF0FBECDBF41
:100C900069837A838B839C835E834D8386E0DE0148
:100CA0001796EEEBF1E001900D928A95E1F78981BC
:100CB0009A81AB81BC81072E79E0880F991FAA1F0A
:100CC000BB1F7A95D1F7702D89839A83AB83BC8340
:100CD00089819A81AB81BC8180709070A0708B2FCC
:100CE0009927AA27BB27888789819A81AB81BC81F4
:100CF00080709070B070CD01AA27BB278987898149
:100D00009A81AB81BC818070A070B070892F9A2FBE
:100D1000AB2FBB278A87CE01079640E052E06D815A
:100D20007E810E94F30580E090E02C960FB6F89447
:100D3000DEBF0FBECDBFDF91CF910895CF93DF937C
:100D4000CDB7DEB728970FB6F894DEBF0FBECDBF84
:100D50009A83898386E0DE011396E4ECF1E001904A
:100D60000D928A95E1F7CE01039640E150E069814A
:100D70007A810E94F30580E090E028960FB6F894FF
:100D8000DEBF0FBECDBFDF91CF910895CF93DF932C
:100D9000CDB7DEB728970FB6F894DEBF0FBECDBF34
:100DA0009A83898386E0DE011396EAECF1E00190F4
:100DB0000D928A95E1F7CE01039640E150E06981FA
:100DC0007A810E94F30580E090E028960FB6F894AF
:100DD000DEBF0FBECDBFDF91CF910895CF93DF93DC
:100DE000CDB7DEB724970FB6F894DEBF0FBECDBFE8
:100DF0009A83898349815A8160E070E080E090E0C5
:100E00000E943E0689819A81FC01EA53FE4F80814F
:100E1000282F332789819A81FC01E953FE4F808175
:100E20009927982F8827820F931F9C838B838B8110
:100E30009C81AA27BB2749815A81BC01CD010E9410
:100E40003E068B819C8124960FB6F894DEBF0FBEC0
:100E5000CDBFDF91CF910895CF93DF93CDB7DEB7AC
:100E600026970FB6F894DEBF0FBECDBF9A83898355
:100E70008091D6019091D701AA27BB2749815A8139
:100E8000BC01CD010E943E0689819A819C838B839F
:100E9000AB81BC81EB81FC818089282F3327EB81DA
:100EA000FC8186899789289FA001299F500D389F32
:100EB000500D11249A01FD0186859785820F931F9D
:100EC0009E838D832D813E818091D6019091D701A3
:100ED000820F931F9E838D838D819E8126960FB6F0
:100EE000F894DEBF0FBECDBFDF91CF9108950F9371
:100EF0001F93CF93DF93CDB7DEB76A970FB6F89401
:100F0000DEBF0FBECDBF9A8389836B835D834C8325
:100F10003F832E83198708871D861C861E861F86A1
:100F2000188A198A888599859B878A8789819A81F9
:100F3000009759F4888599850E942C07AA27BB271A
:100F40008E879F87A88BB98B29C0CE010E964885C6
:100F50005985BC0189819A810E9487088E859F8569
:100F6000A889B9890297A109B1092091DC01332729
:100F700044275527BC01CD010E947B0F9B01AC018A
:100F80008091DA019091DB01AA27BB27820F931F82
:100F9000A41FB51F8E879F87A88BB98B8E859F85D1
:100FA0009D8B8C8B8C899D89AA27BB274885598569
:100FB000BC01CD010E943E061F8A1E8A8E899F8930
:100FC00022E08030920708F08FC0288539858E890D
:100FD0009F89820F931F9B8B8A8BEA89FB89808173
:100FE000882329F48FEF9FEF9A8F898F83C0EA8936
:100FF000FB8983858F3009F471C0EA89FB89808180
:10100000853E09F46BC08B81282F33278C859D8505
:101010002817390709F05DC0188E888D8B3088F548
:101020002A893B89888D9927FC01E20FF31F808173
:10103000803219F1888D883059F4DE011A968D912D
:101040009C911197FC012EE2208301968D939C9335
:10105000BE01665F7F4FFB01208131814A895B8938
:10106000888D9927FC01E40FF51FD90180818C93AD
:101070002F5F3F4FFB0131832083888D8F5F888FE7
:10108000CCCFDE011A968D919C911197FC011082B4
:1010900001968D939C93AE81BF81EA89FB898385FC
:1010A0008C932C813D81EA89FB89848D958DA68D59
:1010B000B78DF90180839183A283B383EA89FB8989
:1010C000828D938D9A83898389819A819A8F898F62
:1010D00011C08C859D8501969D878C878E899F89FF
:1010E00080969F8B8E8B6ACF8C899D8901969D8B74
:1010F0008C8B58CF898D9A8D6A960FB6F894DEBF87
:101100000FBECDBFDF91CF911F910F910895CF9367
:10111000DF93CDB7DEB72E970FB6F894DEBF0FBEC4
:10112000CDBF9A8389837C836B835E834D831886CE
:101130001F821E861D868D859E859C01442755270E
:10114000EB81FC8180819181A281B38128173907CD
:101150004A075B0759F4EB81FC8189819A81AA27B0
:10116000BB2780839183A283B3835AC089819A81EC
:101170002FEF8F3F920709F453C029813A81C901AB
:10118000820F931F91709A87898729813A81C901BB
:10119000820F931F9C01232F332726958091D60120
:1011A0009091D701280F391F8091D8019091D901D2
:1011B000820F931F9C878B872B853C858F81988519
:1011C0002817390771F08B859C8598878F838B85CD
:1011D0009C85AA27BB274D815E81BC01CD010E9461
:1011E0003E062D813E8189859A85820F931FFC01E1
:1011F000319680819927582F442729853A858D81FA
:101200009E81F901E80FF91F80819927840F951FAE
:101210009A8389838D859E8501969E878D878BCF46
:101220002E960FB6F894DEBF0FBECDBFDF91CF91E3
:101230000895CF93DF93CDB7DEB7C250D2400FB63B
:10124000F894DEBF0FBECDBFCE0103960E94EE061E
:101250009093D7018093D6019E012D5F3F4F8091DF
:10126000D6019091D701AA27BB27A901BC01CD01C6
:101270000E943E06CE0103969A838983E981FA8112
:1012800085858093DC01E981FA8186859785909335
:10129000D9018093D801E981FA8183859485880FEB
:1012A000991F82959295907F9827807F9827892F04
:1012B000992786959093DB018093DA01CE010396FE
:1012C0000E942C079C018091DA019091DB01820F32
:1012D000931F9093DB018093DA01CE5FDD4F0FB651
:1012E000F894DEBF0FBECDBFDF91CF910895CF93AD
:1012F000DF93CDB7DEB72C970FB6F894DEBF0FBEE5
:10130000CDBF9A8389837C836B832D833E834F83F8
:1013100058878091DC01282F3327442755278D815A
:101320009E81AF81B885BC01CD010E949A0FDA0180
:10133000C90189879A87AB87BC87CE0109964B8103
:101340005C81BC0189819A810E94870889859A8580
:10135000AB85BC850297A109B1092091DC01332737
:1013600044275527BC01CD010E947B0F9B01AC0196
:101370008091DA019091DB01AA27BB27820F931F8E
:10138000A41FB51F89879A87AB87BC878091DC0132
:10139000282F3327442755278D819E81AF81B8851B
:1013A000BC01CD010E949A0F9B01AC0189859A85F1
:1013B000AB85BC85820F931FA41FB51F89879A87B1
:1013C000AB87BC874B815C8169857A858B859C85E1
:1013D0000E943E062C960FB6F894DEBF0FBECDBF1E
:1013E000DF91CF9108950F931F93CF93DF93CDB7E4
:1013F000DEB7CD50D2400FB6F894DEBF0FBECDBFE2
:101400009A8389837C836B832D833E834F835887A4
:101410008E01065F1D4F8091DC01282F3327442762
:1014200055278D819E81AF81B885BC01CD010E9479
:101430009A0FDA01C901F80180839183A283B383F3
:10144000CE0109969E01265F3D4FAC01B90189810D
:101450009A810E9487088E01065F1D4FFE01E65F9C
:10146000FD4F80819181A281B3810297A109B109C9
:101470002091DC01332744275527BC01CD010E9470
:101480007B0F9B01AC018091DA019091DB01AA27CF
:10149000BB27820F931FA41FB51FF8018083918380
:1014A000A283B3838E01065F1D4F8091DC01282F3C
:1014B0003327442755278D819E81AF81B885BC0194
:1014C000CD010E949A0F9B01AC01FE01E65FFD4F2A
:1014D00080819181A281B381820F931FA41FB51FC8
:1014E000F80180839183A283B383FE01E65FFD4F01
:1014F0004B815C8160817181828193810E9458055A
:10150000C35FDD4F0FB6F894DEBF0FBECDBFDF91D6
:10151000CF911F910F9108950F931F93CF93DF9356
:10152000CDB7DEB72F970FB6F894DEBF0FBECDBF95
:101530009A8389837C836B835E834D8338872F8373
:101540001A870987EB81FC81808191819C878B8739
:101550001D868D85843658F509851A852F81388535
:101560004D815E816D858B859C850E947707EB811F
:10157000FC8191838083EB81FC81808191812FEFBD
:101580008F3F920719F41F861E8615C069857A85DC
:1015900089819A810E94E80A009729F481E090E00D
:1015A0009F878E8708C08D858F5F8D87D2CF82E021
:1015B00090E09F878E878E859F852F960FB6F89433
:1015C000DEBF0FBECDBFDF91CF911F910F91089568
:1015D000FB01DC018D916191562F5062513624F050
:1015E0005B3714F460628062861B11F4662391F706
:1015F000990B08950F931F93CF93DF938C01EB0109
:10160000009711F4672BC1F16EE070E081E090E08B
:101610000E94130EFC01892B71F180E883832097CF
:1016200071F0D387C28781E883838091DD01909137
:10163000DE01892B21F4F093DE01E093DD01011539
:101640001105C9F0118700878381826083838091AF
:10165000DF019091E001892B71F4F093E001E093B8
:10166000DF018091E1019091E201892B21F4F09357
:10167000E201E093E101CF01DF91CF911F910F9142
:101680000895CF93DF93CDB7DEB7E5E0F0E0EC0F40
:10169000FD1F81919191AF01BC018091DF0190917B
:1016A000E0010E94560BDF91CF9108952F923F9257
:1016B0004F925F926F927F928F929F92AF92BF9262
:1016C000CF92DF92EF92FF920F931F93CF93DF930E
:1016D000CDB7DEB762970FB6F894DEBF0FBECDBFB1
:1016E000EE24FF2487011C017E876D872A01CC240C
:1016F000DD24FC01D782C682838181FD68C28FEF21
:101700009FEF78C28D859E8501969E878D87C0FE4E
:101710004BC28F8580538A30D0F49F85903339F443
:10172000662029F4C3FC03C0E0E0F1E08DC08AE04C
:10173000689E602C1124FF856F0E20ED620E67FEFF
:1017400002C05FE7652EC3FC42C2762C40C2C3FED6
:1017500004C0662011F441E0642EEF858E2F992796
:1017600087FD9095883691058CF5853691050CF0AE
:101770006EC08335910509F493C084359105CCF48E
:101780008B32910509F449C08C3291054CF48032BA
:10179000910509F446C08332910509F44AC0FEC19F
:1017A0008D32910509F440C08E32910509F444C090
:1017B000F5C18336910509F450C0843691050CF0CB
:1017C0008AC08835910509F4BCC0E8C1803791050D
:1017D00009F4B1C08137910584F48C36910591F1FB
:1017E0008D3691052CF48936910509F474C0D6C163
:1017F0008F36910509F49CC0D1C18537910509F454
:10180000A2C08637910524F48337910571F1C6C1D2
:101810008837910509F495C0C1C180E190E0C82ADC
:10182000D92AE0E2F0E010C080E890E0C82AD92A86
:10183000CEC1E0E4F0E008C088E090E0C82AD92AF0
:101840006624C5C1E4E0F0E0CE2ADF2AC0C13FE350
:10185000E32E7A94F3E6FF873CC1F20182E090E048
:10186000480E591EE0807A9434C1F20182E090E083
:10187000480E591EA081B1817D01C3FE09C0862D8D
:10188000992787FD9095BC01CD010E94430F1FC091
:10189000FD0101900020E9F73197EA1BE88B18C0A1
:1018A000F20182E090E0480E591E0190F081E02D97
:1018B0007F01C3FE09C0862D992787FD9095BC0145
:1018C000CF010E942E0F03C0CF010E94250F888BED
:1018D0009889791AFEC0C2FE0AC0F20184E090E045
:1018E000480E591E20813181428153810CC0F20182
:1018F00082E090E0480E591E808191819C0144272E
:1019000037FD4095542F79018A0157FF0CC0E2E062
:10191000F0E0CE2ADF2A10950095F094E094E11CC7
:10192000F11C011D111D8FEB9FEFC822D92227C08A
:1019300098E0988B08C0E0E4F0E0CE2ADF2AF8E7D0
:10194000FF8720E1288BC2FE0AC0F20184E090E00C
:10195000480E591E20813181428153810AC0F20113
:1019600082E090E0480E591E808191819C014427BD
:10197000552779018A01EFECFFEFCE22DF22CE015D
:1019800001969A8B898B9889892E9924AA24BB2445
:10199000C801B701A50194010E949A0FDC01CB0197
:1019A000E989FA8980838A3024F0FF858F0F81527C
:1019B00001C0805DE989FA898193FA8BE98BC801BE
:1019C000B701A50194010E949A0F79018A0121159E
:1019D000310541055105E1F6E98881E090E08C0F81
:1019E0009D1FE81AC60182739070892B09F07A94C2
:1019F000C6FE0DC0872D992787FD9095E889E031B7
:101A000021F42EEF722E780E02C0782E7A94C3FE47
:101A10000FC0262D332727FD30958E2D992782174D
:101A200093072CF087EF9FEFC822D92201C06E18D0
:101A3000C3FE02C0761801C07E18C601807891707E
:101A4000892B51F4872D7A94181634F4B10180E271
:101A500090E00E944E0FF6CFC1FE04C0B1018DE2AE
:101A600090E00BC0C4FE04C0B1018BE290E005C061
:101A7000C5FE05C0B10180E290E00E944E0FC6FE97
:101A800010C0B10180E390E00E944E0F9889903120
:101A900041F4B101EF858E2F992787FD90950E9423
:101AA0004E0FD0FE0AC0872D7A94181634F4B10177
:101AB00080E390E00E944E0FF6CFC3FE0AC0862D51
:101AC0006A94181634F4B10180E390E00E944E0F3E
:101AD000F6CF90E8B92EBC2051F4872D7A941816D1
:101AE00034F4B10180E290E00E944E0FF6CFFF8502
:101AF000F33641F48E2DB101992787FD90950E9410
:101B00004E0F40C02F852337B1F488898150888BD0
:101B10008F3FC1F1F70180810894E11CF11CB101F4
:101B2000992787FD90950E944E0F98899150988B28
:101B30009F3F81F727C0EF85E33579F4F889F150AD
:101B4000F88BFF3FF9F0F7018491B10199270E94CA
:101B50004E0F0894E11CF11CF1CF6E010894C11CDA
:101B6000D11C89899A898C159D0561F0E989FA89CA
:101B70008291FA8BE98BB101992787FD90950E949C
:101B80004E0FEFCFBB2069F0872D7A9418164CF4D6
:101B9000B10180E290E00E944E0FF6CFB1010E94A9
:101BA0004E0FCC24DD2413C09F85953241F481E093
:101BB000C82ED12C6624762CEAE0E88B08C0B1014F
:101BC000FF858F2F992787FD90950E944E0FF10179
:101BD000838183FF04C0ED85FE85F49103C0ED850C
:101BE000FE85F081FF872F85222309F08BCDF1013F
:101BF0008681978162960FB6F894DEBF0FBECDBF87
:101C0000DF91CF911F910F91FF90EF90DF90CF90D8
:101C1000BF90AF909F908F907F906F905F904F900C
:101C20003F902F9008950F931F93CF93DF93869F3C
:101C30008001879F100D969F100D1124C8010E94EE
:101C40002F0EEC01009729F0A80160E070E00E94DF
:101C5000390FCE01DF91CF911F910F910895CF934E
:101C6000DF93AC01029710F442E050E020E030E056
:101C7000A091E501B091E601BD01F901109709F4C9
:101C80004CC08D919C9111978417950731F148179D
:101C9000590738F42115310519F08217930708F414
:101CA0009C01FD01A281B381109759F721153105DF
:101CB000A1F1C901841B950B049708F4A901DB016C
:101CC000E0E0F0E0109749F18D919C911197821717
:101CD0009307F9F44217530779F4ED018A819B8148
:101CE000309719F09383828304C09093E601809328
:101CF000E501CD0102964AC0241B350BFD01E20F20
:101D0000F31F41935193225030402D933C93CF01C8
:101D10003DC0FD01A281B381D5CF8091E3019091B7
:101D2000E401892B41F48091D2019091D3019093E9
:101D3000E4018093E301E091D001F091D10130976B
:101D400041F4EDB7FEB78091D4019091D501E81B25
:101D5000F90BA091E301B091E4019F012A1B3B0B19
:101D60002417350788F0CA0102962817390760F052
:101D7000CD01840F951F02969093E4018093E301B7
:101D80004D935D93CD0102C080E090E0DF91CF9153
:101D90000895CF93DF93009709F454C0DC011297A4
:101DA000ED011B821A828091E5019091E601009776
:101DB00021F1FC0140E050E0EA17FB0718F1ED01CA
:101DC000FB83EA832D913C911197C20FD31FCE0163
:101DD00002968E179F0771F48A819B81280F391F05
:101DE0002E5F3F4F11963C932E9382819381FD018C
:101DF000938382834115510559F4B093E601A09372
:101E0000E50120C0AF010280F381E02D3097A1F6FB
:101E1000EA01BB83AA83CA01029628813981820F15
:101E2000931F8A179B0771F48D919C911197280F2E
:101E3000391F2E5F3F4F39832883FD0182819381B3
:101E40009B838A83DF91CF910895FC010590002048
:101E5000E9F7809590958E0F9F1F0895FC010590DE
:101E6000615070400110D8F7809590958E0F9F1F9C
:101E70000895DC0140FF03C001C06D936D93425093
:101E80005040D8F70895FC01615070400190011056
:101E9000D8F7809590958E0F9F1F08950F931F93ED
:101EA000CF93DF938C01EB018B81992781FF1CC0BD
:101EB00082FF0DC02E813F818C819D8128173907BB
:101EC00064F4E881F9810193F983E88306C0E88529
:101ED000F985802F0995892B39F48E819F81019690
:101EE0009F838E83C80102C08FEF9FEFDF91CF9158
:101EF0001F910F910895629FD001739FF001829FFF
:101F0000E00DF11D649FE00DF11D929FF00D839F88
:101F1000F00D749FF00D659FF00D9927729FB00D25
:101F2000E11DF91F639FB00DE11DF91FBD01CF0138
:101F300011240895A1E21A2EAA1BBB1BFD010DC09E
:101F4000AA1FBB1FEE1FFF1FA217B307E407F50769
:101F500020F0A21BB30BE40BF50B661F771F881F45
:101F6000991F1A9469F760957095809590959B01DB
:081F7000AC01BD01CF01089591
:101F78000A5B526F6F74204469726563746F72797B
:101F88003A5D0A00436C7573746572203D202534F0
:101F9800782044697241203D202532782053697A9F
:101FA800653D20253864202046696C654E616D6565
:101FB800203D20000A000A3E5B526F6F742044697E
:101FC800726563746F727920456E64215D0A0A3EFA
:101FD800000A0A0A5B7468652046696C6520656EAC
:101FE800643120215D0A3E002563002020206669B7
:101FF8006C65206E6F7420466F756E64210A3E0012
:102008000A0A0A5B7468652046696C6520656E6417
:1020180020215D0A3E000A3E5B62616420636F6DA9
:102028006D616E64202E2E2E2E2E2E5D0A3E000A25
:102038000A2E2E2E2E2E2E2E2E2E2E2E2E2E204DCB
:102048004D432F5344202B204641543136205465AC
:1020580073742053797374656D202E2E2E2E2E2EB8
:102068002E2E2E2E2E2E2E2E0A0A003E4465746524
:102078006374696E67204D4D432F5344204361724A
:1020880064202E2E2E002E000A0A3E466F756E64BE
:10209800204D4D432F5344204341524420212121B8
:1020A8000A003E43617264204E616D653A003E430A
:1020B8006172642053697A653A002564004D420ACA
:1020C8003E004000000000955800000000FF51004D
:1020D800000000FF4A00000000FF4900000000FF68
:0620E8000000E7012000EA
:00000001FF
